{
  "contractName": "Faucet",
  "abi": [
    {
      "inputs": [
        {
          "internalType": "address",
          "name": "",
          "type": "address"
        }
      ],
      "name": "funders",
      "outputs": [
        {
          "internalType": "uint256",
          "name": "",
          "type": "uint256"
        }
      ],
      "stateMutability": "view",
      "type": "function",
      "constant": true
    },
    {
      "inputs": [
        {
          "internalType": "uint256",
          "name": "",
          "type": "uint256"
        }
      ],
      "name": "lufunders",
      "outputs": [
        {
          "internalType": "address",
          "name": "",
          "type": "address"
        }
      ],
      "stateMutability": "view",
      "type": "function",
      "constant": true
    },
    {
      "inputs": [],
      "name": "numOfFunders",
      "outputs": [
        {
          "internalType": "uint256",
          "name": "",
          "type": "uint256"
        }
      ],
      "stateMutability": "view",
      "type": "function",
      "constant": true
    },
    {
      "inputs": [],
      "name": "owner",
      "outputs": [
        {
          "internalType": "address",
          "name": "",
          "type": "address"
        }
      ],
      "stateMutability": "view",
      "type": "function",
      "constant": true
    },
    {
      "stateMutability": "payable",
      "type": "receive",
      "payable": true
    },
    {
      "inputs": [],
      "name": "test1",
      "outputs": [],
      "stateMutability": "nonpayable",
      "type": "function"
    },
    {
      "inputs": [
        {
          "internalType": "address",
          "name": "_newOwner",
          "type": "address"
        }
      ],
      "name": "transferOwnership",
      "outputs": [],
      "stateMutability": "nonpayable",
      "type": "function"
    },
    {
      "inputs": [],
      "name": "addFunds",
      "outputs": [],
      "stateMutability": "payable",
      "type": "function",
      "payable": true
    },
    {
      "inputs": [
        {
          "internalType": "uint256",
          "name": "_amount",
          "type": "uint256"
        }
      ],
      "name": "withdraw",
      "outputs": [],
      "stateMutability": "nonpayable",
      "type": "function"
    },
    {
      "inputs": [],
      "name": "getAllFunders",
      "outputs": [
        {
          "internalType": "address[]",
          "name": "",
          "type": "address[]"
        }
      ],
      "stateMutability": "view",
      "type": "function",
      "constant": true
    }
  ],
  "bytecode": "0x608060405234801561001057600080fd5b50336000806101000a81548173ffffffffffffffffffffffffffffffffffffffff021916908373ffffffffffffffffffffffffffffffffffffffff160217905550610b94806100606000396000f3fe60806040526004361061008a5760003560e01c80638da5cb5b116100595780638da5cb5b1461013e578063a26759cb14610169578063af7f2c9b14610173578063e4c335511461019e578063f2fde38b146101db57610091565b8063031b3677146100965780632e1a7d4d146100d35780636b59084d146100fc5780636fbbb55d1461011357610091565b3661009157005b600080fd5b3480156100a257600080fd5b506100bd60048036038101906100b8919061075c565b610204565b6040516100ca91906107a2565b60405180910390f35b3480156100df57600080fd5b506100fa60048036038101906100f591906107e9565b61021c565b005b34801561010857600080fd5b506101116102b3565b005b34801561011f57600080fd5b50610128610343565b60405161013591906108d4565b60405180910390f35b34801561014a57600080fd5b5061015361043d565b6040516101609190610905565b60405180910390f35b610171610461565b005b34801561017f57600080fd5b506101886105ef565b60405161019591906107a2565b60405180910390f35b3480156101aa57600080fd5b506101c560048036038101906101c091906107e9565b6105f5565b6040516101d29190610905565b60405180910390f35b3480156101e757600080fd5b5061020260048036038101906101fd919061075c565b610628565b005b60026020528060005260406000206000915090505481565b8067016345785d8a0000811115610268576040517f08c379a000000000000000000000000000000000000000000000000000000000815260040161025f906109a3565b60405180910390fd5b3373ffffffffffffffffffffffffffffffffffffffff166108fc839081150290604051600060405180830381858888f193505050501580156102ae573d6000803e3d6000fd5b505050565b60008054906101000a900473ffffffffffffffffffffffffffffffffffffffff1673ffffffffffffffffffffffffffffffffffffffff163373ffffffffffffffffffffffffffffffffffffffff1614610341576040517f08c379a000000000000000000000000000000000000000000000000000000000815260040161033890610a35565b60405180910390fd5b565b6060600060015467ffffffffffffffff81111561036357610362610a55565b5b6040519080825280602002602001820160405280156103915781602001602082028036833780820191505090505b50905060005b600154811015610435576003600082815260200190815260200160002060009054906101000a900473ffffffffffffffffffffffffffffffffffffffff168282815181106103e8576103e7610a84565b5b602002602001019073ffffffffffffffffffffffffffffffffffffffff16908173ffffffffffffffffffffffffffffffffffffffff1681525050808061042d90610ae2565b915050610397565b508091505090565b60008054906101000a900473ffffffffffffffffffffffffffffffffffffffff1681565b6000600260003373ffffffffffffffffffffffffffffffffffffffff1673ffffffffffffffffffffffffffffffffffffffff16815260200190815260200160002054111561053c5734600260003373ffffffffffffffffffffffffffffffffffffffff1673ffffffffffffffffffffffffffffffffffffffff168152602001908152602001600020546104f49190610b2a565b600260003373ffffffffffffffffffffffffffffffffffffffff1673ffffffffffffffffffffffffffffffffffffffff168152602001908152602001600020819055506105ed565b3360036000600154815260200190815260200160002060006101000a81548173ffffffffffffffffffffffffffffffffffffffff021916908373ffffffffffffffffffffffffffffffffffffffff160217905550600160008154809291906105a390610ae2565b919050555034600260003373ffffffffffffffffffffffffffffffffffffffff1673ffffffffffffffffffffffffffffffffffffffff168152602001908152602001600020819055505b565b60015481565b60036020528060005260406000206000915054906101000a900473ffffffffffffffffffffffffffffffffffffffff1681565b60008054906101000a900473ffffffffffffffffffffffffffffffffffffffff1673ffffffffffffffffffffffffffffffffffffffff163373ffffffffffffffffffffffffffffffffffffffff16146106b6576040517f08c379a00000000000000000000000000000000000000000000000000000000081526004016106ad90610a35565b60405180910390fd5b806000806101000a81548173ffffffffffffffffffffffffffffffffffffffff021916908373ffffffffffffffffffffffffffffffffffffffff16021790555050565b600080fd5b600073ffffffffffffffffffffffffffffffffffffffff82169050919050565b6000610729826106fe565b9050919050565b6107398161071e565b811461074457600080fd5b50565b60008135905061075681610730565b92915050565b600060208284031215610772576107716106f9565b5b600061078084828501610747565b91505092915050565b6000819050919050565b61079c81610789565b82525050565b60006020820190506107b76000830184610793565b92915050565b6107c681610789565b81146107d157600080fd5b50565b6000813590506107e3816107bd565b92915050565b6000602082840312156107ff576107fe6106f9565b5b600061080d848285016107d4565b91505092915050565b600081519050919050565b600082825260208201905092915050565b6000819050602082019050919050565b61084b8161071e565b82525050565b600061085d8383610842565b60208301905092915050565b6000602082019050919050565b600061088182610816565b61088b8185610821565b935061089683610832565b8060005b838110156108c75781516108ae8882610851565b97506108b983610869565b92505060018101905061089a565b5085935050505092915050565b600060208201905081810360008301526108ee8184610876565b905092915050565b6108ff8161071e565b82525050565b600060208201905061091a60008301846108f6565b92915050565b600082825260208201905092915050565b7f63616e6e6f74207769746864726177206d6f7265207468616e20302e3120657460008201527f6865720000000000000000000000000000000000000000000000000000000000602082015250565b600061098d602383610920565b915061099882610931565b604082019050919050565b600060208201905081810360008301526109bc81610980565b9050919050565b7f6f6e6c79206f776e65722063616e206163636573732074686973206d6574686f60008201527f6400000000000000000000000000000000000000000000000000000000000000602082015250565b6000610a1f602183610920565b9150610a2a826109c3565b604082019050919050565b60006020820190508181036000830152610a4e81610a12565b9050919050565b7f4e487b7100000000000000000000000000000000000000000000000000000000600052604160045260246000fd5b7f4e487b7100000000000000000000000000000000000000000000000000000000600052603260045260246000fd5b7f4e487b7100000000000000000000000000000000000000000000000000000000600052601160045260246000fd5b6000610aed82610789565b91507fffffffffffffffffffffffffffffffffffffffffffffffffffffffffffffffff8203610b1f57610b1e610ab3565b5b600182019050919050565b6000610b3582610789565b9150610b4083610789565b9250828201905080821115610b5857610b57610ab3565b5b9291505056fea2646970667358221220f91c0d127de573921b825635c3f27618c8a4f3ca30c8fc1db8aa3e5ea5a7ebf364736f6c63430008120033",
  "immutableReferences": {},
  "source": "// SPDX-License-Identifier: SEE LICENSE IN LICENSE\r\npragma solidity ^0.8.0;\r\n\r\nimport \"./Owned.sol\";\r\nimport \"./IFaucet.sol\";\r\n\r\ncontract Faucet is Owned, IFaucet {\r\n\r\nuint public numOfFunders;\r\nmapping(address=>uint256) public funders;\r\nmapping(uint=>address) public lufunders;\r\n\r\nmodifier limitWithdraw(uint _amount){\r\n    require(_amount<=100000000000000000,\"cannot withdraw more than 0.1 ether\");\r\n    _;\r\n}\r\n\r\n\r\nfunction test1() public onlyOwner{}\r\n\r\n\r\nfunction transferOwnership(address _newOwner) public onlyOwner{\r\n    owner=_newOwner;\r\n}\r\n\r\n\r\nreceive() external payable{}\r\n\r\nfunction addFunds() override public payable{  \r\n  if(funders[msg.sender]>0){\r\n        funders[msg.sender]=funders[msg.sender]+ msg.value;\r\n  }else{\r\n      lufunders[numOfFunders]=msg.sender;\r\n      numOfFunders++;\r\n      funders[msg.sender]=msg.value;\r\n  }\r\n\r\n}\r\n\r\nfunction withdraw(uint _amount) override public limitWithdraw(_amount){\r\n    payable(msg.sender).transfer(_amount);\r\n    \r\n}\r\n\r\nfunction getAllFunders() public view returns(address[] memory){\r\n    address[] memory _funders=new address[](numOfFunders);\r\n    for(uint i=0;i<numOfFunders;i++){\r\n        _funders[i]=lufunders[i];\r\n    }\r\n    return _funders;\r\n}\r\n\r\n\r\n\r\n\r\n\r\n\r\n\r\n\r\n/*\r\n\r\nuint public numOfFunders;\r\nmapping(uint=>address) public funders;\r\n\r\nreceive() external payable{}\r\n\r\nfunction addFunds() public payable{\r\n    bool _funderExist=findFunderAddress(msg.sender);\r\n    require(_funderExist == false, \"Funder already exist !\");\r\n    uint index=numOfFunders++;\r\n    funders[index]=msg.sender;\r\n}\r\n\r\nfunction getAllFunders() public view returns(address[] memory){\r\n    address[] memory _funders=new address[](numOfFunders);\r\n    for(uint i=0;i<numOfFunders;i++){\r\n        _funders[i]=funders[i];\r\n    }\r\n    return _funders;\r\n}\r\n\r\n\r\n\r\nfunction findFunderAddress(address _funderAddress) public view returns(bool){\r\n    address[] memory _funders=getAllFunders();\r\n    bool _funderExist=false;\r\n    for(uint i=0;i<_funders.length;i++){\r\n        if(_funders[i]==_funderAddress){\r\n            _funderExist=true;\r\n            break;\r\n        }\r\n    }\r\n    return _funderExist;\r\n}\r\n\r\n*/\r\n    \r\n}",
  "sourcePath": "D:\\BLOCKCHAIN\\faucet\\contracts\\FaucetContract.sol",
  "compiler": {
    "name": "solc",
    "version": "0.8.18+commit.87f61d96.Emscripten.clang"
  },
  "schemaVersion": "3.4.11",
  "updatedAt": "2023-02-21T23:55:19.402Z",
  "networkType": "ethereum",
  "devdoc": {
    "kind": "dev",
    "methods": {},
    "version": 1
  },
  "userdoc": {
    "kind": "user",
    "methods": {},
    "version": 1
  }
}